:020000040800F2
:10000000008000203D0E0008AD0C0008A902000889
:10001000AF0C0008B10C0008B30C00080000000091
:10002000000000000000000000000000B50C000807
:10003000B70C0008000000002F020008752500081A
:100040008D0E00088D0E00088D0E00088D0E000824
:100050008D0E00088D0E00088D0E00088D0E000814
:100060008D0E00088D0E00088D0E00088D0E000804
:100070008D0E00088D0E00088D0E00088D0E0008F4
:100080008D0E0008000000008D0E00088D0E000887
:100090008D0E00088D0E00088D0E00088D0E0008D4
:1000A0008D0E00088D0E00088D0E00088D0E0008C4
:1000B0008D0E00088D0E00088D0E00088D0E0008B4
:1000C0008D0E00088D0E00088D0E00088D0E0008A4
:1000D0008D0E00088D0E00088D0E00088D0E000894
:1000E0008D0E00088D0E00088D0E00088D0E000884
:1000F0008D0E00088D0E00088D0E00080000000017
:10010000000000008D0E0008000000008D0E0008A9
:100110008D0E0008000000008D0E00088D0E0008F6
:100120008D0E00088D0E00088D0E00088D0E000843
:100130008D0E000800000000000000008D0E000879
:100140008D0E00088D0E0008000000000000000069
:10015000000000000000000000000000000000009F
:100160000000000000000000000000008D0E0008EC
:100170008D0E0008000000000000000000000000DC
:10018000000000008D0E00080000000000000000CC
:10019000000000000000000000000000000000005F
:1001A00000000000000000008D0E00088D0E000809
:1001B0008D0E00088D0E00088D0E00080000000056
:1001C000000000008D0E000800000000000000008C
:0801D0008D0E00088D0E0008E1
:10020000EFF3108072B6704780F310887047344A5D
:100210001368012B04D04FF001031360314A1060C2
:10022000314A116031484FF0805101607047EFF35F
:10023000108272B62A48016891B14FF00001016046
:100240002848016829B1EFF3098121E9F00F00681E
:100250000160254909680968B1E8F00F81F3098850
:1002600082F310884EF0040E70471F4908601D4944
:100270004FF0000008601A494FF0010008601C4868
:100280001C49D0F8002041EA0201016017484FF0F4
:100290008051016018480068006800BF80F308883A
:1002A00061B662B6704700BFEFF308801EF0040F1E
:1002B00001D0EFF3098020E9F00F40F804ED1EF0C3
:1002C000040F02D080F3098801E080F3088800B5AC
:1002D00003F038F95DF804EB4EF0040E70470000AF
:1002E00090070020980700209407002004ED00E00C
:1002F00020ED00E00000FFFF08ED00E080F000408E
:1003000002E000BF81F0004142001FBF5FEA4103ED
:1003100092EA030F7FEA226C7FEA236C6AD04FEAED
:100320001262D2EB1363C1BFD21841404840414032
:10033000B8BF5B42192B88BF704710F0004F40F4E4
:10034000000020F07F4018BF404211F0004F41F400
:10035000000121F07F4118BF494292EA030F3FD0CC
:10036000A2F1010241FA03FC10EB0C00C3F12003DF
:1003700001FA03F100F0004302D5494260EB40006E
:10038000B0F5000F13D3B0F1807F06D340084FEAD9
:10039000310102F10102FE2A51D2B1F1004F40EBCE
:1003A000C25008BF20F0010040EA03007047490036
:1003B00040EB0000013A28BFB0F5000FEDD2B0FAD3
:1003C00080FCACF1080CB2EB0C0200FA0CF0AABFF6
:1003D00000EBC25052421843BCBFD0401843704794
:1003E00092F0000F81F4000106BF80F4000001329A
:1003F000013BB5E74FEA41037FEA226C18BF7FEA71
:10040000236C21D092EA030F04D092F0000F08BFB2
:100410000846704790EA010F1CBF0020704712F099
:100420007F4F04D1400028BF40F00040704712F1D8
:1004300000723CBF00F50000704700F0004343F03D
:10044000FE4040F4000070477FEA226216BF084673
:100450007FEA23630146420206BF5FEA412390EA36
:10046000010F40F4800070474FF0000304E000BF2C
:1004700010F0004348BF40425FEA000C08BF7047DD
:1004800043F0964301464FF000001CE050EA0102A1
:1004900008BF70474FF000030AE000BF50EA0102B6
:1004A00008BF704711F0004302D5404261EB4101A3
:1004B0005FEA010C02BF84460146002043F0B643C8
:1004C00008BFA3F18053A3F50003BCFA8CF2083AED
:1004D000A3EBC25310DB01FA02FC634400FA02FCF6
:1004E000C2F12002BCF1004F20FA02F243EB0200FD
:1004F00008BF20F00100704702F1200201FA02FC5F
:10050000C2F1200250EA4C0021FA02F243EB020051
:1005100008BF20EADC7070474FF0FF0C1CEAD05295
:100520001EBF1CEAD15392EA0C0F93EA0C0F6FD056
:100530001A4480EA010C400218BF5FEA41211ED034
:100540004FF0006343EA501043EA5111A0FB013120
:100550000CF00040B1F5000F3EBF490041EAD371F5
:100560005B0040EA010062F17F02FD2A1DD8B3F171
:10057000004F40EBC25008BF20F00100704790F0E0
:10058000000F0CF0004C08BF49024CEA502040EA32
:1005900051207F3AC2BFD2F1FF0340EAC2507047F8
:1005A00040F400004FF00003013A5DDC12F1190F36
:1005B000DCBF00F000407047C2F10002410021FAA8
:1005C00002F1C2F1200200FA02FC5FEA310040F1C0
:1005D000000053EA4C0308BF20EADC70704792F039
:1005E000000F00F0004C02BF400010F4000F013A71
:1005F000F9D040EA0C0093F0000F01F0004C02BF6C
:10060000490011F4000F013BF9D041EA0C018FE7DA
:100610000CEAD15392EA0C0F18BF93EA0C0F0AD0E0
:1006200030F0004C18BF31F0004CD8D180EA010006
:1006300000F00040704790F0000F17BF90F0004F9F
:10064000084691F0000F91F0004F14D092EA0C0F81
:1006500001D142020FD193EA0C0F03D14B0218BF14
:10066000084608D180EA010000F0004040F0FE405A
:1006700040F40000704740F0FE4040F440007047F6
:100680004FF0FF0C1CEAD0521EBF1CEAD15392EA75
:100690000C0F93EA0C0F69D0A2EB030280EA010C65
:1006A00049024FEA402037D04FF0805343EA1111FE
:1006B00043EA10130CF000408B4238BF5B0042F15C
:1006C0007D024FF4000C8B4224BF5B1A40EA0C0001
:1006D000B3EB510F24BFA3EB510340EA5C00B3EB33
:1006E000910F24BFA3EB910340EA9C00B3EBD10F21
:1006F00024BFA3EBD10340EADC001B0118BF5FEA73
:100700001C1CE0D1FD2A3FF650AF8B4240EBC2509B
:1007100008BF20F0010070470CF0004C4CEA50205C
:100720007F32C2BFD2F1FF0340EAC250704740F4AB
:1007300000004FF00003013A37E792F0000F00F09D
:10074000004C02BF400010F4000F013AF9D040EA1B
:100750000C0093F0000F01F0004C02BF490011F4AF
:10076000000F013BF9D041EA0C0195E70CEAD153A7
:1007700092EA0C0F08D142027FF47DAF93EA0C0F8E
:100780007FF470AF084676E793EA0C0F04D14B0272
:100790003FF44CAF08466EE730F0004C18BF31F024
:1007A000004CCAD130F000427FF45CAF31F000431E
:1007B0007FF43CAF5FE700BF42000ED2B2F1FE4FC4
:1007C0000BD34FF09E03B3EB126209D44FEA002320
:1007D00043F0004323FA02F070474FF000007047E7
:1007E00012F1610F01D1420202D14FF0FF30704788
:1007F0004FF00000704700BF53B94AB9002908BF45
:1008000000281CBF4FF0FF314FF0FF3000F00CB854
:10081000ADF1080C6DE904CE03F0F8FEDDF804E05C
:10082000DDE9022304B07047704700BF844641EA07
:10083000000313F003036DD1403A41D351F8043B58
:1008400040F8043B51F8043B40F8043B51F8043BAA
:1008500040F8043B51F8043B40F8043B51F8043B9A
:1008600040F8043B51F8043B40F8043B51F8043B8A
:1008700040F8043B51F8043B40F8043B51F8043B7A
:1008800040F8043B51F8043B40F8043B51F8043B6A
:1008900040F8043B51F8043B40F8043B51F8043B5A
:1008A00040F8043B51F8043B40F8043B51F8043B4A
:1008B00040F8043B51F8043B40F8043B403ABDD2B9
:1008C000303211D351F8043B40F8043B51F8043B5B
:1008D00040F8043B51F8043B40F8043B51F8043B1A
:1008E00040F8043B103AEDD20C3205D351F8043BEA
:1008F00040F8043B043AF9D2043208D0D2071CBFB6
:1009000011F8013B00F8013B01D30B8803806046DE
:10091000704700BF082A13D38B078DD010F0030354
:100920008AD0C3F10403D21ADB071CBF11F8013BC4
:1009300000F8013B80D331F8023B20F8023B7BE713
:10094000043AD9D3013A11F8013B00F8013BF9D23E
:100950000B7803704B7843708B78837060467047D8
:100960000000000000000000000000000000000087
:100970000000000000000000000000000000000077
:1009800030B490F800F020F007016FF0000C10F088
:10099000070491F820F040F048804FF000046FF019
:1009A0000700D1E9002391F840F000F1080082FA35
:1009B0004CF2A4FA8CF283FA4CF3A2FA8CF34BBB00
:1009C000D1E9022382FA4CF200F10800A4FA8CF279
:1009D00083FA4CF3A2FA8CF3E3B9D1E9042382FA47
:1009E0004CF200F10800A4FA8CF283FA4CF3A2FA5C
:1009F0008CF37BB9D1E9062301F1200182FA4CF294
:100A000000F10800A4FA8CF283FA4CF3A2FA8CF3FA
:100A1000002BC6D0002A04BF04301A4612BAB2FA1C
:100A200082F200EBD20030BC7047D1E9002304F021
:100A30000305C4F100004FEAC50514F0040F91F856
:100A400040F00CFA05F562EA05021CBF63EA0503F3
:100A500062464FF00004AAE70348044B834202D0E9
:100A6000034B03B1184770474C0000204C00002096
:100A7000000000000548064B1B1AD90F01EBA3012B
:100A8000491002D0034B03B1184770474C000020B7
:100A90004C0000200000000010B5064C237843B93C
:100AA000FFF7DAFF044B13B10448AFF300800123D2
:100AB000237010BD5000002000000000104B000803
:100AC00008B5054B1BB105490548AFF30080BDE8EB
:100AD0000840FFF7CFBF00BF000000005400002017
:100AE000104B000808B54FF48071044800F0F7FA85
:100AF0004FF4FA7003F0FAFBF5E700BF0008004876
:100B000010B584B00B4803F02FF90B4C142303935A
:100B10000323029380230193084B00930023084A88
:100B20000849204603F04AFB204603F00CFC002055
:100B300004B010BDE84B0008EC0000206C00002061
:100B4000E50A0008F04B0008F0B58BB000240594CE
:100B50000694079408940994264BDA6C42F0040238
:100B6000DA64DA6C02F004020192019ADA6C42F063
:100B70002002DA64DA6C02F020020292029ADA6C45
:100B800042F00102DA64DA6C02F001020392039A85
:100B9000DA6C42F00802DA64DB6C03F008030493B9
:100BA000049B154E01224FF47E41304600F092FA2C
:100BB00022464FF48071304600F08CFA0F4F01222C
:100BC0000421384600F086FA4FF47F43059301254F
:100BD00006950795089405A9304600F08DF9042381
:100BE000059306950795089405A9384600F084F901
:100BF0000BB0F0BD0010024000080048000C004897
:100C000072B6FEE700B595B03822002106A803F0C1
:100C10005BFE0023019302930393049305934FF427
:100C2000007000F065FA022306934FF48072099277
:100C300040220A920D930E930F9319221092119352
:100C40001293139306A800F00DFB70B90F230193C4
:100C500003210291002303930493059301A800F05C
:100C6000B9FD20B915B05DF804FBFFF7C9FFFFF728
:100C7000C7FF000000B583B00B4B1A6E42F00102B3
:100C80001A661A6E02F001020092009A9A6D42F002
:100C900080529A659B6D03F080530193019B00F095
:100CA000ADFA03B05DF804FB00100240FEE7FEE77A
:100CB000FEE7FEE770477047704700001E4B9B68D9
:100CC00003F00C03082B12D00C2B14D0042B0AD0E9
:100CD000194B9B68C3F30313184AD15C184A136875
:100CE000CB4013607047164B164A1A60F0E7144B5E
:100CF000154A1A60ECE7104AD36803F00303D26880
:100D0000C2F303120132022B12D00F4BB3FBF2F2EB
:100D10000949CB68C3F3062302FB03F3CA68C2F395
:100D2000416201325200B3FBF2F3054A1360CFE790
:100D3000044BB3FBF2F2EBE700100240004C00085A
:100D4000000000200024F40000366E0108B51748AA
:100D5000174B03604FF4E133436000238360C360AB
:100D600003610C2242618361C36103624362836257
:100D700001F0E4FA70B900210C4801F058FB60B9A9
:100D800000210A4801F078FB50B9084801F030FB17
:100D900048B908BDFFF734FFEDE7FFF731FFEFE794
:100DA000FFF72EFFF1E7FFF72BFFF2E764010020CA
:100DB0000038014010B598B00446002113911491F9
:100DC000159116911791442202A803F07DFD226827
:100DD000184B9A4201D018B010BD0123029302A80B
:100DE00000F01EFE10BB144B1A6E42F480421A66CD
:100DF0001A6E02F480420092009ADA6C42F001020C
:100E0000DA64DB6C03F001030193019B4FF4C063D0
:100E10001393022314930023159316930723179318
:100E200013A94FF0904000F067F8D4E7FFF7E8FE11
:100E3000D9E700BF00380140001002400D48854648
:100E40000D480E490E4A002302E0D458C450043322
:100E5000C4188C42F9D30B4A0B4C002301E01360F9
:100E60000432A242FBD3FFF727FF03F0C1FD02F0DB
:100E700082FCFEE700800020000000204C000020E3
:100E80004C56000850000020D00F0020FEE710B59F
:100E9000032000F00BF80F2001F014FB10B1012427
:100EA000204610BD0446FFF7E5FEF9E7074AD36880
:100EB00023F4E0631B041B0C000200F4E060034316
:100EC00043F0BF6343F40033D360704700ED00E0AC
:100ED0000138B0F1807F0BD24FF0E0235861054A12
:100EE000F02182F823100020986107221A617047D0
:100EF0000120704700ED00E070B582B0002365E08E
:100F000085685E000324B44025EA0405CC68B4403B
:100F10002C438460456825EA0C054C68C4F3001432
:100F20009C402C43446062E0DD08083550F82540C1
:100F300003F0070C4FEA8C0C4FF00F0E0EFA0CFE6C
:100F400024EA0E0E0C6904FA0CF444EA0E0440F88C
:100F5000254063E0052400E0002404FA0EF42C434D
:100F60000CF1020C574D45F82C40574CA568D44362
:100F700025EA0206D1F804C01CF4801F01D042EA21
:100F80000506514DAE60ED6804EA0506D1F804C0CF
:100F90001CF4001F01D042EA05064B4DEE606D685F
:100FA00004EA0506D1F804C01CF4003F01D042EA6F
:100FB0000506454D6E602D682C404E6816F4803F46
:100FC00001D042EA0504404A146001330A6832FA4B
:100FD00003F474D04FF0010C0CFA03FC1CEA02027B
:100FE000F3D04C6804F00304013C012C88D94C6810
:100FF00004F00304032C0CD0C4685D004FF0030C14
:101000000CFA05FC24EA0C0C8C68AC4044EA0C0495
:10101000C4604C6804F00304022C85D004684FEAD5
:10102000430E4FF0030C0CFA0EFC24EA0C0C4C6837
:1010300004F0030404FA0EF444EA0C0404604C685F
:1010400014F4403FC1D0214C256E45F001052566C2
:10105000246E04F001040194019C4FEA930C0CF1FE
:101060000205184C54F8255003F0030E4FEA8E0E7B
:101070000F2404FA0EF425EA0405B0F1904F3FF472
:101080006BAF134CA04212D004F58064A04210D084
:1010900004F58064A0420ED004F58064A0420CD018
:1010A00004F58064A0423FF455AF062455E70124BF
:1010B00053E7022451E703244FE704244DE702B02D
:1010C00070BD00BF0000014000040140001002405C
:1010D000000400480AB1816170478162704743692A
:1010E00001EA030221EA030141EA024181617047FA
:1010F000002836D13E4B1B6803F4C063B3F5806F04
:1011000008D03B4AD2F8803023F48073C2F8803094
:1011100000207047364AD2F8803023F48073C2F83A
:101120008030136823F4C06343F400731360314BC1
:101130001B68322202FB03F32F4AA2FB03239B0C02
:10114000013300E0013B2A4A526912F4806F01D05A
:10115000002BF7D1264B5B6913F4806F44D100203C
:101160007047B0F5007F08D0214A136823F4C063AC
:1011700043F480631360002070471D4B1B6803F429
:10118000C063B3F5806F08D0194AD2F8803043F4B9
:101190008073C2F8803000207047154AD2F8803042
:1011A00043F48073C2F88030136823F4C06343F4BF
:1011B000007313600F4B1B68322202FB03F30E4ACD
:1011C000A2FB03239B0C013300E0013B084A526958
:1011D00012F4806F01D0002BF7D1054B5B6913F43B
:1011E000806F03D1002070470320704703207047B1
:1011F000007000400000002083DE1B43024A936819
:1012000043F480439360704700700040124BDA68EB
:1012100002F00302DB68C3F303130133032A11D086
:101220000E48B0FBF3F00C4BDB68C3F3062303FB63
:1012300000F0094BDB68C3F3416301335B00B0FB93
:10124000F3F070470648B0FBF3F0034BDB68C3F3E1
:10125000062303FB00F0ECE7001002400024F4003A
:1012600000366E01002800F0548270B582B004464A
:10127000036813F0010F37D0A44A936803F00C03FE
:10128000D26802F003020C2B23D0082B23D0636812
:10129000B3F5803F4ED0B3F5A02F51D09B4B1A68C9
:1012A00022F480321A601A6822F480221A6063687D
:1012B000002B52D001F018F90546944B1B6813F42B
:1012C000003F11D101F010F9401B6428F5D903202B
:1012D00028E2032AD9D18D4B1B6813F4003F03D0B9
:1012E0006368002B00F01782236813F0020F5DD0B3
:1012F000864A936803F00C03D26802F003020C2BB9
:101300003AD0042B3AD0E368002B75D07F4A13689B
:1013100043F48073136001F0E7F805467B4B1B68CC
:1013200013F4806F5FD101F0DFF8401B0228F5D97C
:101330000320F7E1754A136843F480331360B6E77E
:1013400003F18043A3F53C331A6842F480221A600B
:101350001A6842F480321A60A9E701F0C5F8054620
:101360006A4B1B6813F4003FBED001F0BDF8401B70
:101370006428F5D90320D5E1022AC2D1634B1B684A
:1013800013F4806F03D0E368002B00F0C6815F4A3E
:10139000536823F0FE43216943EA016353605C4BC9
:1013A000186801F08FF8002840F0B981236813F025
:1013B000080F4CD063699BB3544AD2F8943043F081
:1013C0000103C2F8943001F08FF805464F4BD3F873
:1013D000943013F0020F3AD101F086F8401B022836
:1013E000F4D903209EE1494A536823F0FE43216962
:1013F00043EA01635360D9E7444A136823F48073D6
:10140000136001F071F80546404B1B6813F4806FC0
:10141000CCD001F069F8401B0228F5D9032081E106
:101420003A4AD2F8943023F00103C2F8943001F024
:101430005BF80546354BD3F8943013F0020F06D015
:1014400001F052F8401B0228F4D903206AE1236816
:1014500013F0040F00F081802C4B9B6D13F0805F24
:1014600036D12A4B9A6D42F080529A659B6D03F0FB
:1014700080530193019B0125264B1B6813F4807F49
:1014800028D0A368012B39D0052B45D01F4BD3F8AA
:10149000902022F00102C3F89020D3F8902022F08F
:1014A0000402C3F89020A368002B43D001F01CF87D
:1014B0000646164BD3F8903013F0020F4CD101F0D2
:1014C00013F8801B41F288339842F2D9032029E1B6
:1014D0000025D1E70F4A136843F48073136001F0CD
:1014E00003F806460B4B1B6813F4807FC9D100F04C
:1014F000FBFF801B0228F5D9032013E1034AD2F831
:10150000903043F00103C2F89030CCE70010024065
:1015100004000020007000408A4BD3F8902042F075
:101520000402C3F89020D3F8902042F00102C3F8DF
:101530009020B8E700F0D8FF0646824BD3F89030F1
:1015400013F0020F08D000F0CFFF801B41F2883368
:101550009842F2D90320E5E0E5B9236813F0200FA3
:1015600035D0A369E3B1774AD2F8983043F001034C
:10157000C2F8983000F0B8FF0546724BD3F89830A7
:1015800013F0020F23D100F0AFFF401B0228F4D963
:101590000320C7E06B4A936D23F080539365DCE72B
:1015A000684AD2F8983023F00103C2F8983000F06E
:1015B0009BFF0546634BD3F8983013F0020F06D01B
:1015C00000F092FF401B0228F4D90320AAE0E3694F
:1015D000002B00F0A6805B4A926802F00C020C2AF5
:1015E00069D0022B1DD0574B1A6822F080721A6006
:1015F000DA6822F00302DA60DA6822F0887222F4F4
:101600008032DA6000F070FF04464E4B1B6813F026
:10161000007F4ED000F068FF001B0228F5D90320A0
:1016200080E0484A136823F08073136000F05CFF89
:101630000546444B1B6813F0007F06D000F054FFB2
:10164000401B0228F5D903206CE03E4AD3683E498E
:101650001940236A606A013843EA0013A06A43EA2A
:101660000023206B4008013843EA4053606B400878
:10167000013843EA4063E06A43EAC0631943D1603A
:10168000136843F080731360D36843F08073D360B2
:1016900000F02AFF04462B4B1B6813F0007F06D195
:1016A00000F022FF001B0228F5D903203AE00020B9
:1016B00038E0002036E0012B36D0224BDB6803F007
:1016C0000301226A914231D103F0F002616A0139CB
:1016D000B2EB011F2CD103F4FE42A16AB2EB012F41
:1016E00028D103F07842E16AB2EBC16F24D103F450
:1016F000C001226B5208013AB1EB425F1ED103F0E8
:10170000C063626B5208013AB3EB426F18D10020FC
:1017100008E001207047012004E0012002E00120E0
:1017200000E0002002B070BD0120FBE70120F9E7D6
:101730000120F7E70120F5E70120F3E70120F1E7B9
:101740000120EFE7001002400C809F011E4B9B68B8
:1017500003F00C03042B33D01B4B9B6803F00C03EA
:10176000082B2FD0184B9B6803F00C030C2B01D0D7
:1017700000207047144BDA6802F00302DB68C3F301
:1017800003130133032A11D01048B0FBF3F00E4BC2
:10179000DB68C3F3062303FB00F00B4BDB68C3F3EA
:1017A000416301335B00B0FBF3F070470848B0FBC6
:1017B000F3F0054BDB68C3F3062303FB00F0ECE713
:1017C0000248704702487047001002400024F400AD
:1017D00000366E01002800F0E680F8B50C4605469C
:1017E000744B1B6803F00F038B420BD2714A1368D2
:1017F00023F00F030B431360136803F00F038B42B6
:1018000040F0D3802E6816F001065FD06B68032B82
:101810002FD0022B4DD0684B1B6813F4806F00F063
:10182000C680FFF793FF654B98424DD9624A936893
:1018300023F0F00343F08003936080265E4A9368B0
:1018400023F0030369680B43936000F04DFE0746E5
:10185000594B9B6803F00C036A68B3EB820F35D0D9
:1018600000F042FEC01B41F288339842F0D90320B9
:1018700078E0514B1B6813F0007F01D1012071E02B
:10188000FFF7C4FC4D4B98421AD94B4B9B6813F0A1
:10189000F00F05D02E6816F00206CFD0AB688BB9DA
:1018A000454A936823F0F00343F080039360802659
:1018B000C4E7414B1B6813F4003FB2D1012051E053
:1018C0000026BBE70026B9E70026B7E72B6813F030
:1018D000020F48D013F0040F04D0374A936843F442
:1018E000E06393602B6813F0080F06D0324A9368C8
:1018F00023F47C5343F4E06393602F4A936823F00E
:10190000F003A9680B4393602A4B1B6803F00F0395
:10191000A34230D82B6813F0040F06D0264A9368F0
:1019200023F4E063E9680B4393602B6813F0080F1E
:1019300007D0214A936823F46053296943EAC1031D
:101940009360FFF703FF1C4B9B68C3F303131C4A10
:10195000D35C03F01F03D8401A4B18601A4B186869
:1019600000F0B0FDF8BD802ECED1134A936823F06D
:10197000F0039360C8E70F4A136823F00F03234373
:10198000136000F0B1FD06460A4B1B6803F00F031D
:10199000A342BFD000F0A8FD801B41F288339842DB
:1019A000F2D90320DEE7012070470120DAE70120A9
:1019B000D8E700BF002002400010024000B4C40479
:1019C000004C00080000002004000020014B1868B3
:1019D000704700BF0000002008B5FFF7F7FF054B78
:1019E0009B68C3F30223044AD35C03F01F03D8406F
:1019F00008BD00BF00100240F84B000808B5FFF713
:101A0000E5FF054B9B68C3F3C223044AD35C03F094
:101A10001F03D84008BD00BF00100240F84B00086B
:101A2000F0B583B00446036813F4002F69D0AE4BC1
:101A30009B6D13F0805F1ED1AB4B9A6D42F08052CC
:101A40009A659B6D03F080530193019B0126A74A81
:101A5000136843F48073136000F046FD0546A34B02
:101A60001B6813F4807F08D100F03EFD401B022864
:101A7000F5D9032502E00026E9E7002545BB9A4B8E
:101A8000D3F8903013F4407315D0226C9A4212D0E0
:101A9000954AD2F8903023F44073D2F8901041F474
:101AA0008031C2F89010D2F8901021F48031C2F841
:101AB0009010C2F8903013F0010F10D145B98A4A46
:101AC000D2F8903023F44073216C0B43C2F890306D
:101AD000C6B1854A936D23F08053936512E000F000
:101AE00003FD0746804BD3F8903013F0020FE5D189
:101AF00000F0FAFCC01B41F288339842F2D903256A
:101B0000DCE70025236813F0010F08D0764AD2F8ED
:101B1000883023F0030361680B43C2F888302368E0
:101B200013F0020F08D0704AD2F8883023F00C036B
:101B3000A1680B43C2F88830236813F0040F08D063
:101B4000694AD2F8883023F03003E1680B43C2F8C9
:101B50008830236813F0080F08D0634AD2F8883021
:101B600023F0C00321690B43C2F88830236813F0C7
:101B7000200F08D05C4AD2F8883023F440636169B2
:101B80000B43C2F88830236813F0400F08D0564A40
:101B9000D2F8883023F44053A1690B43C2F888304F
:101BA000236813F0800F08D04F4AD2F8883023F40E
:101BB0004043E1690B43C2F88830236813F4807F07
:101BC00008D0494AD2F8883023F44033216A0B43C5
:101BD000C2F88830236813F4007F08D0424AD2F854
:101BE000883023F44023616A0B43C2F888302368AD
:101BF00013F4806F0CD03C4AD2F8883023F44013A1
:101C0000A16A0B43C2F88830A36AB3F5801F57D08E
:101C1000236813F4006F0CD0334AD2F8883023F4D1
:101C20004003E16A0B43C2F88830E36AB3F5800FE2
:101C30004BD0236813F4805F0CD02B4AD2F8883045
:101C400023F04073216B0B43C2F88830236BB3F150
:101C5000807F3FD0236813F4005F0CD0224AD2F873
:101C6000883023F04063616B0B43C2F88830636BAC
:101C7000B3F1006F33D0236813F4804F0CD01A4AAD
:101C8000D2F8883023F04063A16B0B43C2F8883050
:101C9000A36BB3F1006F2BD0236813F4004F0CD06B
:101CA000114AD2F8883023F04053E16B0B43C2F85D
:101CB0008830E36BB3F1805F1FD0284603B0F0BDDE
:101CC000D36843F48013D360A2E7D36843F480134E
:101CD000D360AEE7D36843F48013D360BAE7D36828
:101CE00043F48013D360C6E7001002400070004048
:101CF000D36843F48013D360CEE7D36843F48033D2
:101D0000D360DAE770B5044601688368026913435B
:101D100042691343C269134308688B4A02401A435D
:101D20000A602268536823F44053E1680B43536010
:101D3000A1692268854B9A4201D0236A19439368AE
:101D400023F06E4323F430630B4393602268D36A1D
:101D500023F00F03616A0B43D36223687C4A9342EA
:101D600023D07C4A934234D07B4A93424AD07B4A68
:101D7000934259D0754A934268D0102273498B42DE
:101D800000F09580E069B0F5004F00F0D280082A9D
:101D900000F24F81DFE812F01201340110014D0111
:101DA00037014D014D014D013A0102F55842D2F87B
:101DB000882002F00302032A09D8DFE802F00204B7
:101DC0005C060122DAE70422D8E70822D6E71022CF
:101DD000D4E702F5E632D2F8882002F00C020C2A91
:101DE0000ED8DFE802F0070D0D0D090D0D0D4A0D9F
:101DF0000D0D0B000022C1E70422BFE70822BDE75A
:101E00001022BBE702F5E432D2F8882002F030025B
:101E1000202A34D004D8A2B3102A34D10422ADE74A
:101E2000302A32D10822A9E702F5E232D2F888201E
:101E300002F0C002802A2AD004D852B3402A2AD104
:101E400004229BE7C02A28D1082297E702F5C8326E
:101E5000D2F8882002F44062B2F5006F1FD005D896
:101E6000FAB1B2F5806F1ED1042287E7B2F5406F58
:101E70001BD1082282E7022280E702227EE70222AB
:101E80007CE700227AE7102278E7102276E7022228
:101E900074E7002272E7102270E710226EE7022238
:101EA0006CE700226AE7102268E7102266E7082A3A
:101EB00000F2AF80DFE802F008AD3BAD38ADADAD6C
:101EC00005004FF4004004E0FFF786FD002800F015
:101ED000A280626A224B33F81220B0FBF2F36568ED
:101EE00005EB4501994200F29880B3EB053F00F203
:101EF0009680002633463146FEF77EFC090241EA11
:101F0000106100026B08C0182A46334641F10001F7
:101F1000FEF772FCA0F54072124B9A4200F28180EB
:101F20002368D860304662E0FFF710FCCEE70E4829
:101F3000CFE7082A77D8DFE802F0193905763C7632
:101F400076761D00084815E0F369FFCF0080004059
:101F5000003801400044004000480040004C004070
:101F6000104C0008FFFC0F000024F400FFF734FDC4
:101F700000285AD0626A324B33F81230B0FBF3F0CB
:101F80006268530803EB4003B3FBF2F3A3F11001C3
:101F90004FF6EF7291424AD89AB222F00F02C3F381
:101FA000420313432268D360002020E0FFF726FDA0
:101FB000DEE7FFF7CBFBDBE7224803E0FFF70CFD92
:101FC000002838D0626A1E4B33F81230B0FBF3F0B1
:101FD000636800EB5300B0FBF3F0A0F110024FF682
:101FE000EF739A4229D8236880B2D8600020012379
:101FF000A4F86A30A4F8683000232367636770BDD3
:10200000FFF7FCFCDCE7FFF7A1FBD9E74FF400404A
:10201000D8E70120EBE70020E9E70120E7E701200E
:10202000E5E70120E3E70120E1E70020DFE7012009
:10203000DDE70120DBE70020D9E70120D7E700BF7B
:10204000104C00080024F400836A13F0010F06D03E
:102050000268536823F40033C16A0B435360836AF8
:1020600013F0020F06D00268536823F48033016B2B
:102070000B435360836A13F0040F06D00268536861
:1020800023F48023416B0B435360836A13F0080FE2
:1020900006D00268536823F40043816B0B435360FE
:1020A000836A13F0100F06D00268936823F48053FC
:1020B000C16B0B439360836A13F0200F06D0026854
:1020C000936823F40053016C0B439360836A13F00D
:1020D000400F0AD00268536823F48013416C0B430D
:1020E0005360436CB3F5801F0BD0836A13F0800FED
:1020F00006D00268536823F40023C16C0B4353607D
:1021000070470268536823F4C003816C0B4353602B
:10211000EBE72DE9F84305460F4616469946DDF8EC
:1021200020802B68DC6937EA04040CBF01240024FA
:10213000B44257D1B8F1FF3FF3D000F0D5F9A0EB8E
:10214000090040452FD8B8F1000F2CD02B681A6831
:1021500012F0040FE5D0DA6912F4006FE1D04FF409
:1021600000621A622A6852E8003F23F4D07342E802
:1021700000310029F6D12A6802F1080353E8003F34
:1021800023F00103083242E800310029F3D1202373
:10219000C5F88430C5F88830C5F88C30002385F840
:1021A000803003201FE02A6852E8003F23F4D073F8
:1021B00042E800310029F6D12A6802F1080353E809
:1021C000003F23F00103083242E800310029F3D137
:1021D0002023C5F88430C5F88830002385F8803086
:1021E000032000E00020BDE8F8832DE9F04182B033
:1021F0001E46D0F88430202B58D104460D46904618
:10220000002957D0002A57D090F88030012B55D0A4
:10221000012380F880300023C0F88C302123C0F8DF
:10222000843000F061F90746A4F85480A4F8568081
:10223000A368B3F5805F05D04FF00008002384F851
:10224000803014E0236913B14FF00008F6E7A84688
:102250000025F3E738F8023B2268C3F308039362D2
:10226000B4F8562092B2013A92B2A4F85620B4F8CB
:1022700056309BB273B100963B4600228021204627
:10228000FFF747FFE0B9002DE4D015F8012B2368D4
:102290009A62E5E700963B46002240212046FFF780
:1022A00038FF78B92023C4F8843000E0022002B05F
:1022B000BDE8F0810120FAE70120F8E70220F6E707
:1022C0000320F4E70320F2E730B583B0044600238F
:1022D000C0F88C3000F008F905462268126812F048
:1022E000080F0FD123681B6813F0040F18D12023A7
:1022F000C4F88430C4F888300020E06684F8800098
:1023000003B030BD6FF07E430093034600224FF4CC
:1023100000112046FFF7FDFE0028E3D00320EFE781
:102320006FF07E4300932B4600224FF4800120463D
:10233000FFF7EFFE0028DAD00320E1E778B310B50D
:102340000446D0F884300BB32423C4F884302268C8
:10235000136823F0010313602046FFF7D3FC012824
:1023600013D0A36ABBB92268536823F49043536027
:102370002268936823F02A0393602268136843F06D
:10238000010313602046FFF79FFF10BD80F88030E7
:10239000FEF710FDD8E72046FFF756FEE3E70120E1
:1023A00070470000436E2BB90123A0F86A30A0F8F3
:1023B0006830704730B403689A68C2F34262996823
:1023C000490F094D6B5CDB00084C615C93FBF1F33A
:1023D000A0F86A30AB5CDB00A25C93FBF2F3A0F8E0
:1023E000683030BC704700BF304C0008284C0008F3
:1023F00090F88030012B18D0012380F880302423FE
:10240000C0F8843003681A68196821F00101196066
:1024100022F000520023436601680A602022C0F8BF
:10242000842080F88030184670470220704738B505
:1024300090F88030012B1DD00446012380F88030B5
:102440002423C0F8843003681D681A6822F0010252
:102450001A600268936823F0604319439160FFF7A4
:10246000A1FF23681D602023C4F88430002084F875
:10247000800038BD0220FCE738B590F88030012B91
:102480001DD00446012380F880302423C0F8843016
:1024900003681D681A6822F001021A6002689368D6
:1024A00023F0606319439160FFF77CFF23681D6090
:1024B0002023C4F88430002084F8800038BD022036
:1024C000FCE700004FF0E022D2F8FC3D43F08073BF
:1024D000C2F8FC3D034B002058601A6842F001022C
:1024E0001A607047001000E008B5064B5868FDF709
:1024F000BBFF0549FEF7C4F80449FEF70DF8FEF7E7
:102500005BF908BD001000E020BCBE4C00007A441E
:1025100008B50A480A4B03604FF4E13343600023D7
:102520008360C36003610C2242618361C361FFF772
:1025300005FF00B1FEE7002008BD00BFF401002048
:102540000038014008B5FEF7A2FCFEF75BFBFFF781
:102550003DFA074BA3FB00308009FEF7B9FCFEF7FC
:10256000ADFBFEF7F1FAFEF7F1FBFFF7D1FF08BD77
:10257000D34D621008B501F033F901F077F801F09E
:102580003DF908BDF0B583B005460D238DF8073041
:1025900001F072FA0746002406E001231A4631468C
:1025A0000948FFF722FE0134BC420BD22E192B5DE5
:1025B0000A2BF2D101231A460DF107010248FFF759
:1025C00014FEEAE703B0F0BDF401002008B50B4BA0
:1025D0001B68DA6912F0200F03D0586AC0B2C0B28B
:1025E00008BDDA6912F0080F01D008221A620A2029
:1025F00001F080FE4FF0FF30F1E700BFF401002052
:1026000008B5024801F0B0FB002008BD384C0008B6
:1026100038B50546046800E02468AC420BD0A4F14C
:102620001401054801F0A0FB2368AB42F4D0034835
:1026300001F09AFBF0E738BD4C4C0008504C000804
:1026400008B501F0A9FB002008BDF8B500230B6117
:10265000CB684BB304460E460B7A3BB30F68B0B160
:102660000025FDF7CDFD35B914F8043C23F08003B7
:10267000327A93420ED1736800252468A7420DD0A8
:10268000013543F8044BF268AA42F6D107E03C4614
:102690000125E6E7FDF7B8FD002403E00024FDF77F
:1026A000B3FD35612046F8BD0024FBE70024F9E7BF
:1026B000F8B504460D4617461E46084601F0AEFB27
:1026C0000430206025726760E66000232361F8BD56
:1026D0002DE9F043AFB0082321AA012129A8FFF773
:1026E000E7FF434A0821434801F03EFB4FF008084A
:1026F00003E0414801F038FBA04608F1FF34B8F18F
:10270000000FF6D13D4801F02FFB002764E078224E
:10271000494603A8FEF78AF83046FDF775FD94F8A0
:1027200029300093A4F10C0308221146344801F02B
:102730001BFB94F8283003F00F03012B06D0042B69
:1027400007D8DFE803F00D06091511002D4801F048
:102750000BFBE069034610E02B4801F005FBF8E7AE
:102760002A4801F001FBF4E7294801F0FDFAF0E7FF
:10277000284801F0F9FAECE701331A78232AFBD054
:10278000226A2169411AC31A1344642000FB03F32F
:10279000606A0190606B0090B3FBF2F311441E4835
:1027A00001F0E2FA01352D9BAB4214DD2EAB03EBB9
:1027B000850353F8344CA4F10C09FDF721FD0646BE
:1027C00014F8043C23F080039DF8AC2093429ED083
:1027D000FDF71AFDE6E737B129A93846FFF735FFBF
:1027E00007464546DFE700202FB0BDE8F08300BF75
:1027F000544C00085C4C0008A04C0008A44C000895
:10280000E44C0008F04C0008FC4C0008084D00089F
:10281000144D0008204D00082C4D00082DE9F04112
:1028200090B0082303AA02210BA8FFF741FF344A06
:102830000821344801F098FA4FF0080808F1FF34F5
:10284000B8F1000F04D0304801F08EFAA046F5E749
:102850002E4801F089FA002746E0FDF7D5FC013546
:102860000F9BAB423FDD10AB03EB850353F8346C99
:10287000FDF7C6FC16F8043C23F080039DF83420D5
:102880009342EAD1FDF7C0FC06F10804B3689C420C
:1028900017D0A6F10C03308A2246002100E0013156
:1028A00012689442FBD10191009008221146184809
:1028B00001F05AFA2046FFF7ABFE164801F054FA31
:1028C000CDE7A6F10C03308A2246002100E0013159
:1028D00012689442FBD101910090082211460E48E3
:1028E00001F042FABBE737B10BA93846FFF7ADFE5E
:1028F00007464546B4E7002010B0BDE8F08100BFB0
:10290000544D0008604D0008A04C00087C4D0008A4
:10291000944D00085C540008A44D00082DE9F041D6
:1029200092B0082305AA05210DA8FFF7C1FE364A7B
:102930000821364801F018FA4FF0080808F1FF3472
:10294000B8F1000F04D0324801F00EFAA046F5E7C6
:10295000304801F009FA00274AE0FDF755FC01363E
:10296000119BB34243DD12AB03EB860353F8345C97
:10297000FDF746FC15F8043C23F080039DF83C204D
:102980009342EAD1FDF740FC05F10804AB689C4294
:1029900019D0A5F10C03E88AAD8A2246002100E097
:1029A000013112689442FBD10291019500900822F6
:1029B0001146194801F0D8F92046FFF729FE1748BB
:1029C00001F0D2F9CBE7A5F10C03E88AAD8A2246E3
:1029D000002100E0013112689442FBD1029101957F
:1029E0000090082211460E4801F0BEF9B7E737B152
:1029F0000DA93846FFF729FE07464646B0E70020F6
:102A000012B0BDE8F08100BFB44D0008BC4D000815
:102A1000A04C0008E04D0008FC4D00085C54000884
:102A2000144E0008F0B591B0082303AA0A210BA8A0
:102A3000FFF73EFE294A0821294801F095F90827A9
:102A400003E0284801F090F927467C1E002FF8D1BA
:102A5000254801F089F900262FE0FDF7D5FB013468
:102A60000F9BA34228DD10AB03EB840353F8345CC7
:102A7000FDF7C6FB15F8043C23F080039DF83420D5
:102A80009342EAD1FDF7C0FBEB690193AB69009378
:102A9000A5F10C0308221146144801F065F915F858
:102AA000033C13F0010F03D0114801F05DF9D6E7A4
:102AB000104801F059F9D2E736B10BA93046FFF7BB
:102AC000C4FD06463C46CBE700F0CAFD01460A4875
:102AD00001F04AF9002011B0F0BD00BF2C4E0008F3
:102AE000344E0008A04C00085C4E0008804E0008E0
:102AF000984E0008A44E0008B44E000838B50D48A2
:102B000001F032F90C4B1C6800E00C340B4B1B68D5
:102B1000A3420DD9256802220949284601F026FF63
:102B20000028F2D062682946064801F01DF9ECE75A
:102B3000002038BDCC4E00089804002094040020EA
:102B4000E04E0008E44E00080346027862B110B47B
:102B50000C7834B1A24204D1013301311A78002A31
:102B6000F6D1181A10BC7047001A704770B5154698
:102B70000024234651E08B420BD2002200F8012BA7
:102B8000013390F800C0BCF1200FF4D0BCF1090F64
:102B9000F1D0072C08D88B4216D2BCF1220F15D0E9
:102BA00045F8240001342FE01D4801F0DDF800262F
:102BB000B44206D955F826101A4801F0D5F8013666
:102BC000F6E7194801F0D0F8204670BD0130013316
:102BD00045F82400013401E0013001330278222A53
:102BE00009D08B4207D25C2AF6D14278222AF3D14F
:102BF00001300133F0E78B42E6D2002200F8012BCE
:102C000001330AE0013001330278202A03D0092A77
:102C100001D08B42F6D38B42D6D28B42B1D3D3E7CD
:102C2000C0500008E05000085C54000838B50F4858
:102C300001F09AF80E4B1C6800E00C340D4B1B6839
:102C4000A3420DD9256806220B49284601F08EFEC5
:102C50000028F2D16268A91D084801F085F8ECE768
:102C6000074801F081F8002038BD00BFE45000089B
:102C70009804002094040020005100080851000826
:102C80005C540008F8B507460E460F4B1C6800E080
:102C90000C340E4B1B68A34214D9256806220C493C
:102CA000284601F063FE0028F2D132463946A81DBD
:102CB00001F05CFE0028EBD1B31DEB5C002BE7D1EB
:102CC000A06800E00020F8BD9804002094040020D3
:102CD0000051000808B5FFF7FBFC002008BDF0B567
:102CE00089B004460D461646002100E00131635CC0
:102CF000202B03D0092B01D0A942F7D3A9B120463C
:102D0000FFF7C0FF074698B120220021684601F076
:102D1000DBFD6A4629462046FFF728FF58B1694681
:102D2000B8473060002009B0F0BD4FF0FF30FAE73F
:102D30004FF0FF30F7E74FF0FF30F4E70120704726
:102D400010B582B0044601E00134013921B1237885
:102D5000202BF9D0092BF7D011B9002002B010BDFB
:102D600001AA2046FFF7BBFF80B90198F6E70132C0
:102D70001378202B01D0002BF9D1002313702146AA
:102D8000034800F0F1FF4FF0FF30E7E72246EFE79E
:102D9000145100082DE9F843037833B10646204B5F
:102DA0001D684FF0000847460AE000210846FFF77B
:102DB0003DFF33E021461B4800F0D6FF4F460C355F
:102DC000194B1B68AB4221D92C68062217492046B3
:102DD00001F0CCFD0028F2D106343046FDF7D0FDDD
:102DE00002462146304601F0C1FD0028E7D127B94F
:102DF0002046FDF7C5FD0746A04621464046FFF7A1
:102E0000A3FE81468742D5DCB946D3E7B8F1000F6F
:102E100004D03A464146304600F018FEBDE8F8833B
:102E2000980400201051000894040020005100086C
:102E300008B5FFF7CBFB08BD134B1B6893F8213097
:102E400013F0020F12D010B5FFF778FF98B10F4BB7
:102E50000F4A92E80300186019710C4C2046FDF7E8
:102E60008FFD0C4B1B882352084810BD074B0022D6
:102E70001A7006487047054B074A92E8030018602D
:102E80009980090C9971E8E78804002084020020E9
:102E900078510008885100088051000810B5044698
:102EA000094800F061FFFFF749FF012807D0FFF74D
:102EB000C3FF01462246054800F056FF10BD2046DC
:102EC000FFF768FFF3E700BF5C5400088C5100086F
:102ED00010B5AB4B1A6892F8213043F0010382F829
:102EE0002130FFF7A9FF00F03FFF41E0A44B1B6832
:102EF000012283F820203BE05B2C03D0002283F8E2
:102F0000202043E0022283F8202031E0002283F8D1
:102F10002020412C2CD0422C2AD0442C15D0432CDC
:102F200034D1B3F87420B3F872108A4220D21A4414
:102F300092F82210934800F017FF914B1A68B2F8EC
:102F400074300133A2F8743012E0B3F874307BB1FE
:102F50008D4800F009FF8A4B1A68B2F87430013BC3
:102F6000A2F8743004E07F2C3CD0FF2C40F0A98004
:102F7000FFF75EFF041EFBDB1B2CB7D0804B1B68EA
:102F800093F82020012AB7D0022ABFD0002CEFD01E
:102F90000D2CE8DC082CC0F29480A4F10802052A6C
:102FA00000F28F80DFE802F01E1C648D8D6476488D
:102FB00000F0DAFE0134724B1868B0F87430A342A6
:102FC000F5DC2230FFF76AFF6D4B1C6804F122002C
:102FD000FDF7D6FC80B2A4F87200A4F87400C7E72D
:102FE0000024E8E7B3F874100029C1D0B3F87240A8
:102FF000013CA4B2A3F8724001398AB2A3F874204C
:1030000094420BD8614800F0AFFE5D4B1B68B3F8EB
:1030100072201344002283F82220A9E702F1200045
:10302000184402F121011944A21A0231023000F0C1
:10303000EEFC534C2368B3F872201A44002182F846
:103040002210B3F8742020321344991C504800F029
:103050008BFE2368B3F8744003E04B4800F084FE15
:103060000134474B1B68B3F87230A342F5DA7FE7AF
:10307000FFF764FE012811D0FFF7DEFE00F074FEBA
:103080003F4B1C685022002104F1220001F01CFC7F
:103090000023A4F87230A4F8743069E7384B1B6839
:1030A00093F8213013F0010F07D1354B1868B0F8B1
:1030B00072102230FFF744FEDEE7364800F054FE7F
:1030C000F3E7B3F872204F2A02D90022A3F8722046
:1030D000B3F874C0B3F8722094451DD31A4482F833
:1030E000224093F8213013F0010F44D1244B1A6889
:1030F000B2F8723001339BB2A2F87230B2F8741099
:103100000131A2F874104F2B7FF632AF0023A2F8E2
:103110007230A2F874302BE70CF1210018440CF146
:1031200020011944A2EB0C020231023000F06FFCC6
:10313000134B1B68B3F87420991881F8224093F858
:10314000211011F0010F04D10D4B1B68B3F874402E
:103150000AE020321344991C0F4800F005FEF3E703
:10316000094800F001FE0134054B1B68B3F87230CA
:10317000A342F5DCBAE72146024800F0F5FDB5E7C9
:10318000880400209851000894510008A4510008B8
:103190009C5100085C5400084C4C0008044B1B6810
:1031A00093F8212060F3410283F82120704700BF8B
:1031B00088040020024B1860024B1960704700BF62
:1031C0009804002094040020024B1860024B196000
:1031D000704700BF900400208C04002030B585B0FB
:1031E00015491648FFF7E6FF15491648FFF7ECFFAB
:1031F000154D164B2B600A230393152302934FF4AE
:1032000000730193124B00930023124A1249134892
:1032100000F0D4FF044600231A461149286800F044
:10322000CFFA0120FFF7BAFF14B1002005B030BD7E
:103230000A4801F088F8F8E7D04B0008284B00084E
:10324000D04B0008D04B0008880400209C040020CC
:1032500014050020D12E0008A851000814070020F2
:10326000B051000810B5264800F07EFD254C94F8BA
:103270002910254800F078FD94F8293013F0010F4B
:1032800021D1204B93F8293013F0020F1FD11D4B91
:1032900093F8293013F0040F1DD11A4B93F82930FD
:1032A00013F0080F1BD1174B93F8293013F0100FB0
:1032B00019D1144B93F8293013F0800F17D113480C
:1032C00000F052FD10BD124800F04EFDD9E7114844
:1032D00000F04AFDDBE7104800F046FDDDE70F484F
:1032E00000F042FDDFE70E4800F03EFDE1E74FF061
:1032F000E023D3F8381D0B4800F036FDE2E700BFAD
:10330000B851000800ED00E0C45100085C5400080A
:10331000DC510008E8510008F4510008045200088C
:10332000105200081852000810B5214800F01CFD8A
:10333000204C94F82810204800F016FD94F828300E
:1033400013F0010F1BD11B4B93F8283013F0020F21
:1033500019D1184B93F8283013F0080F17D1154BDB
:1033600093F8283013F0100F15D1124B93F8283032
:1033700013F0800F13D1114800F0F6FC10BD104877
:1033800000F0F2FCDFE70F4800F0EEFCE1E70E484A
:1033900000F0EAFCE3E70D4800F0E6FCE5E74FF05B
:1033A000E023D3F8341D0A4800F0DEFCE6E700BF56
:1033B0002852000800ED00E03C5200085C54000870
:1033C00054520008605200086C52000878520008FD
:1033D0008452000810B5214800F0C6FC204C618DD5
:1033E00089B2204800F0C0FC638D13F0010F1CD19E
:1033F0001B4B5B8D13F0020F1BD1194B5B8D13F030
:10340000040F1AD1164B5B8D13F0080F19D1144B12
:103410005B8D13F4807F18D1114B5B8D13F4007F0B
:1034200017D1114800F0A0FC10BD104800F09CFC22
:10343000DEE70F4800F098FCDFE70E4800F094FC50
:10344000E0E70D4800F090FCE1E70C4800F08CFC50
:10345000E2E70B4800F088FCE3E700BF9452000865
:1034600000ED00E0A45200085C540008BC520008C3
:10347000C8520008D4520008DC520008E452000888
:10348000F052000808B54FF0E023D3F82C3D13F0BC
:10349000020F19D14FF0E023D3F82C3D13F0804FE9
:1034A0000BD0124B93F8293093B9104B93F8283076
:1034B0008BB90E4B5B8D9BB283B94FF0E023D3F8F1
:1034C0002C3D002B0DDB08BD094800F04DFCE1E769
:1034D000FFF7C8FEE9E7FFF727FFEAE7FFF77AFF04
:1034E000EBE7044800F040FCEDE700BF00ED00E032
:1034F000FC5200081453000830B40546043222F090
:10350000070CACF14000002203E00D4C40F82240D3
:1035100001320F2AF9D94CF8201C00224CF81C2C3F
:103520004CF8182C4CF8142C4CF8102C4CF80C3C83
:103530004CF8085C4FF080734CF8043C30BC70478A
:10354000EFBEADDE10B50446314B1B681BB1243015
:10355000984700285AD0216C2E4800F005FC616A7B
:103560002D4800F001FCA16A2C4800F0FDFBE16A47
:103570002B4800F0F9FB216B2A4800F0F5FB61684D
:10358000294800F0F1FBA168284800F0EDFBE16854
:10359000274800F0E9FB2169264800F0E5FB616956
:1035A000254800F0E1FBA169244800F0DDFBE1695A
:1035B000234800F0D9FB216A224800F0D5FB616B5B
:1035C000214800F0D1FBA16B204800F0CDFBE16B5E
:1035D0001F4800F0C9FB236813F0040F0ED000F061
:1035E00009FE01461B4800F0BFFBFFF771F8236896
:1035F00013F0100F06D0FFF745FFFEE7164800F066
:10360000B3FBF4E7154800F0AFFBF4E710BD00BFD3
:103610008C0700202453000834530008445300084A
:10362000545300086453000874530008845300087E
:1036300094530008A4530008B4530008C45300086E
:10364000D4530008E4530008F4530008045400085D
:10365000145400082454000844540008605400081E
:10366000014B1868704700BF9C07002008B5094A45
:1036700013680133136000F0BDFD036C013B03646C
:1036800013B100F061FF08BDC36B036400F0B8FD27
:10369000F7E700BF9C070020002815DB0C4981FBE1
:1036A0000023C217C2EBA3124FF47A7C0CFB02F288
:1036B000831A0CFB03F303F2E73381FB0301D817F2
:1036C000C0EBA110104470474FF0FF30704700BFAF
:1036D000D34D6210002070470020704700207047D3
:1036E0000020704710B5044C02E054F8043B9847A2
:1036F000024B9C42F9D310BDDC4B0008E44B0008A0
:1037000008B5FFF7EFFFFDF7FBF908BD10B584B072
:103710000A4C142303930A2302934FF4007301937A
:10372000074B00930023074A0749204600F046FD57
:10373000204600F008FE04B010BD00BFA007002026
:1037400018080020013700087054000808B5FCF77D
:1037500057FDFEF7F7FE00F01FFB00F049FF00F0F9
:10376000B3FBFFF7D3FF00F04FFF00F00BF800F0C2
:10377000D1FB002008BD08B5FFF7E8FF002008BD19
:10378000FEE7000010B584B0094C202303931F23EB
:10379000029380230193074B00930023064A0749B5
:1037A000204600F00BFD204600F0CDFD04B010BD1A
:1037B000980A0020180A0020813700087854000871
:1037C00070B5044616461D460A46022100F038FB35
:1037D00004F11403A3616361A6836572002070BDC8
:1037E00008B5FCF70DFD044A13780133DBB2137002
:1037F000FCF70AFD08BD00BF100B002008B5FCF760
:10380000FFFC044A1378013BDBB21370FCF7FCFCAD
:1038100008BD00BF100B00200146002008E000EBAF
:103820008000531C0B60137803EB4003A3F13000BE
:103830000A681378303B092BF1D970472DE9F0471E
:1038400084B099460D9C0E9D15F0400F17D0DFF8FF
:1038500050A115F0100F01D025F0010515F0010F52
:1038600010D0302615F0020F11D0002A0CDB15F015
:10387000040F24D115F0080F23D1002708E0DFF84A
:1038800024A1E6E72026EDE752422D2700E000279D
:10389000AABB30238DF800304FF0010CA44531DC79
:1038A00022460C9BA3EB020E15F0110F37D127B166
:1038B000BEF1000F01DD0EF1FF3E734626E02B271F
:1038C000E6E72027E4E7384BA3FB023E4FEADE0E93
:1038D0000EEB8E08A2EB480872461AF808E00CF1CD
:1038E00010036B4403F810EC0CF1010C002AD5D046
:1038F000B9F10A0FE7D002F00F081209EDE74FF017
:10390000000CF3E76246CCE70130734603F1FF3E5B
:10391000002B04DD8842F7D220230370F4E72FB197
:10392000884200D207700EF1FF3E013015F0100FF3
:1039300003D073460CE001309E460EF1FF33BEF11A
:10394000000F05DD8842F6D20670F4E701307246BA
:1039500002F1FF3E624506DD8842F7D23022027056
:10396000F4E7013094460CF1FF32BCF1000F0BDD9F
:1039700054B18842F5D202F110056D4415F8105C7F
:103980000570EEE7013013465A1E002B04DD884215
:10399000F8D220230370F5E704B0BDE8F08700BF3C
:1039A0002455000810550008CDCCCCCC032A22D9D0
:1039B00010B4CCB210F0030F1FD144EA042444EA3F
:1039C0000444034605E01C605C609C60DC60103AC7
:1039D00010330F2AF7D802E043F8044B043A032AC5
:1039E000FAD802E003F8011B624602F1FF3C002A0C
:1039F000F8D110BC7047034604E00346F5E703F82E
:103A0000011B624602F1FF3C002AF8D17047884250
:103A100018D98B18834217D900EB020C04E013F875
:103A2000012D0CF8012D0A46511E002AF7D17047CE
:103A300011F8012B03F8012B624602F1FF3C002A2A
:103A4000F6D170470346F8E70346F6E79AB110B59A
:103A5000944603468E460C7801311C7001331CB12C
:103A6000BCF1010CF6D110BDBCF1010CFBD0002261
:103A700003F8012BF8E77047034600E001331A789A
:103A8000002AFBD1181A70472DE9F04387B007468A
:103A9000884605920493461803D36FEA00084FF056
:103AA000FF363D4603E00135059B01330593059B39
:103AB0001B78002B00F04881252B03D0B542F2D2B1
:103AC0002B70F0E7002401E044F01004059A531C29
:103AD000059353782D2BF7D02B2B08D0202B09D012
:103AE000232B0AD0302B0BD144F00104EEE744F035
:103AF0000404EBE744F00804E8E744F02004E5E7B9
:103B0000A3F13001092911D92A2B14D04FF0FF3924
:103B1000059B1A782E2A1DD04FF0FF30059B1A788E
:103B2000682A30D06C2A2ED000222EE005A8FFF79C
:103B300073FE8146ECE702320592049B1A1D049243
:103B4000D3F80090B9F1000FE2DAC9F1000944F0AE
:103B50001004DDE75A1C05925A78A2F130010929B8
:103B600003D92A2A08D00020D8E705A8FFF754FE79
:103B70000028D3DA0020D1E702330593049B1A1DF5
:103B800004921868F4E701330593059B1B78252BF5
:103B900000F09580C0F0B480782B00F2B180582BF3
:103BA000C0F0AE80583B202B00F2AA80DFE803F083
:103BB000A0A8A8A8A8A8A8A8A8A8A811A4A8A8A828
:103BC000A8A4A8A8A8A8A88D70A8A834A8B9A8A82F
:103BD000BB0014F0100F09D0049B1A1D04921B782F
:103BE000B54200D22B7001350BE0013509F1FF39E8
:103BF000B9F1000FF0DDB542F7D220232B70F4E7C6
:103C0000013509F1FF39B9F1000F7FF74DAFB5422A
:103C1000F6D220232B70F3E7049B1A1D04921A6836
:103C20000AB1002302E04F4AFBE701334B4502D0C3
:103C3000D15C0029F9D1002802DD834200DD034672
:103C400014F0100F03D000210FE00135894609F16F
:103C5000FF314B4504DAB542F7D220202870F4E753
:103C60008946F0E7013501320131994206DAB54261
:103C7000F8D210782870F5E70135914609F1FF3246
:103C80004B45BFF611AFB542F6D220212970F3E7BC
:103C9000B9F1FF3F0ED0049B1A1D04921A680294DA
:103CA0000190CDF80090102331462846FFF7C6FD5D
:103CB0000546F9E644F001044FF00809EBE7B54288
:103CC00001D225232B700135EEE608236C2A2CD077
:103CD000682A2FD0049A111D049112680294019051
:103CE000CDF8009031462846FFF7A8FD0546DBE6F3
:103CF00044F040041023E9E744F002040A23E5E716
:103D0000B54201D225232B70691C059B1A7822B17C
:103D1000B14200D26A700235C6E6013B05930D46FA
:103D2000C2E60A23D2E71023D0E7049A111D0491BA
:103D30001268D3E7049A111D049111688AB214F035
:103D4000020FCBD00AB2C9E7B8F1000F02D0B542DA
:103D500004D22B70E81B07B0BDE8F083002306F8FF
:103D6000013CF7E7805400080FB410B582B004ABF3
:103D700053F8042B0193074C40F2FF112046FFF744
:103D800083FE2046FEF7FEFB02B0BDE8104004B003
:103D9000704700BF140B002000B583B00948FFF73F
:103DA000E3FF0948FFF7E0FF084B009305230122DA
:103DB00003210748FFF7D8FF0648FFF7D5FF03B0F8
:103DC0005DF804FB8854000894540008D854000897
:103DD000B8540008E4540008E8B110F0FF020AD11A
:103DE00010F47F4F0BD110F47F0F0ED1030E0A4A4F
:103DF000D05C19307047084B985C01307047C0F3B5
:103E00000723054AD05C09307047C0F30743024AD4
:103E1000D05C113070477047385500080023032BE1
:103E200009DC1A0105498A5C824201D00133F6E7B8
:103E300001EB031070470020704700BF080000200E
:103E40002DE9F04106460F4690460846FFF7E6FF8B
:103E5000054600F0FBF86B6800E01B682C1D9C42D7
:103E6000FBD100F0FFF867F07F0737720822414668
:103E70003046FFF7EBFDFCF7C3F906F10C036A6867
:103E800053606A68F2606B603461FCF7BDF9BDE8AD
:103E9000F08110B5044600230372FCF7B1F904F178
:103EA0000C03E16822694A60E16811602361E36004
:103EB000FCF7AAF910BD90F90830002B01DB0020B7
:103EC000704701207047000000230C4A138006E071
:103ED0000B4901EBC302526041F8332001331F2B21
:103EE000F6DD084B1F221A700023074A1360074AA9
:103EF0001360074B5B601B60704700BF240D002000
:103F00002C0D00201C0D0020200D0020280D00206D
:103F1000140D002008B5084B1868FFF75DFF013845
:103F2000064B53F83000A0F11402054B1A6008301C
:103F3000FCF79BF908BD00BF280D00202C0D0020C8
:103F4000200D002038B5FCF75BF90446144BB3F99B
:103F50000030C3B9134B1868FFF73EFF431E124AE7
:103F600052F83310A1F114021048006890420AD0B0
:103F70000F4D2B700D4B1A600E4B1B783BB1083167
:103F80001C30FCF744F92046FCF73EF938BD0831F7
:103F90001C30FCF73CF92046FCF736F9F6E700BF89
:103FA000240D0020280D00202C0D0020200D0020C5
:103FB0001C0D0020100B002010B50446FCF720F962
:103FC00094F8343023F00F0343F0010384F83430C5
:103FD00094F83520094B03EBC20304F1140259682D
:103FE0000A605968A1615A606361A16B044A136851
:103FF0000B431360FCF708F910BD00BF2C0D002027
:10400000280D002010B50446FCF7FAF804F114035B
:104010006169A2694A6061691160A361636194F892
:104020003520084B03EBC20153F83230994202D0DD
:10403000FCF7EAF810BDA16B034A136823EA0103F9
:104040001360F5E72C0D0020280D002008B5FCF7C3
:10405000D7F8034A138801331380FCF7D5F808BD5D
:10406000240D002008B5FCF7CBF80B4A1388013B60
:104070001BB21380002B02DDFCF7C6F808BD134607
:1040800000221A80FCF7C0F8044B1B68002BF5D007
:10409000FFF758FFF2E700BF240D0020200D00209D
:1040A00038B50446FCF7ACF80546236F0BB1204643
:1040B00098472846FCF7A8F838BD000038B5144BDF
:1040C0001C68FCF79DF805462046FFF7E9FF2046EF
:1040D000FFF798FF042384F8343004F1440000F023
:1040E0008CF92046FFF7E7FE01280DD004F11402F9
:1040F000084B19684A6061611A60A361FFF722FFEB
:104100002846FCF781F838BD2046FFF7C2FEF5E7E8
:10411000200D0020140D0020F0B583B00446174692
:104120000898099A9DF828500B9E04F11401A1618A
:10413000616127626362A062E2622321FFF736FCBD
:10414000A16AE36A1A1F104B0A44616A206AFFF7EA
:10415000D3F9E06184F8365084F835500025A56322
:10416000E6632664256384F8345025676567019506
:1041700000952346054A214604F1440000F029F940
:10418000284603B0F0BD00BFBD40000891410008C3
:1041900008B56FF00102026300F114028169D0F8E2
:1041A00014C0CCF80410D0F814C0C1F800C082616B
:1041B0004261FFF701FFFFF7C5FE08BDF0B585B00E
:1041C00005460C4616461F460A460121FFF738FEF3
:1041D0000D9B03939DF8303002930B9B01930A9B38
:1041E00000933B46324621462846FFF795FF05B02F
:1041F000F0BD0000014B1868704700BF200D002083
:1042000010B5FBF7FDFF134B1B6893F8342002F049
:104210000F02012A03D159699A69914203D1FBF730
:10422000F3FF002010BD03F114044A6059691160C6
:104230009C615C6193F83510074A02EBC10251683A
:104240000C605168996154605A61FBF7DDFFFFF71C
:1042500079FEE6E7200D00202C0D002038B590F8FF
:10426000343003F00F03012B17D10446FBF7C8FFCE
:1042700005462046FFF7C6FE94F8343023F00F03BE
:1042800043F0020384F8343004F1440000F01AF9DA
:104290002846FBF7B9FF002038BD4FF0FF30FBE7A1
:1042A00070B582B00190FBF7ABFF05460E4B1C6862
:1042B0002046FFF7D3FF04F1440601AA002130464F
:1042C00000F018F9304600F0ADF82846FBF79CFFE7
:1042D000FFF738FE236B13F1020F02D0002002B06B
:1042E00070BD00232363F9E7200D002008B5FFF718
:1042F000D7FF08BD08B5FFF7CFF9FFF7D1FF08BD1D
:1043000038B590F8343003F00F03022B18D104466F
:10431000FBF776FF054604F114036169A2694A6060
:1043200061691160A361636104F1440000F0CAF89F
:104330002846FBF769FF2046FFF73EFE002038BD08
:104340004FF0FF30FBE708B590F8361080F83510D5
:1043500001228A408263022280F83420FFF7D0FFD6
:10436000FFF748FF08B1FFF7EDFD002008BD9DF8FD
:1043700000C080F809C02CF0010C80F809C0C161B0
:1043800002620022826243621346002B00DD704706
:104390009A1C00EBC202111D916051600133F4E7D9
:1043A0000022002A00DD704710B4931C00EBC30309
:1043B000191D9C68D3F804C0CCF80440D3F804C09D
:1043C000C4F800C0996059600132002AEDDD10BCCC
:1043D000704770B582B0044615461E460A460A214B
:1043E000FFF72EFD9DF81C300093069B32462946B0
:1043F0002046FFF7BCFF02B070BD38B50446FBF79E
:10440000FFFE05462046FFF7CBFF637A23F001034A
:1044100063722846FBF7F8FE2046FFF73AFD0020BE
:1044200038BD000070B582B00446FBF7E9FE0546D2
:104430002046FFF7B5FF637A23F001036372FFF7AD
:104440000FF9636AC618A6621C4B01930022DAB109
:104450001B4A136801331360019B04F114021968AD
:104460004A60196861611A60A361637A43F00103CD
:1044700063722846FBF7C8FE002002B070BD02AB95
:1044800003EB820343F8041C02AB03EB820353F8F3
:10449000040CD300094901EBC201496888420AD0E3
:1044A00001681433CB1A9B6A9E42E8D09B1B6FF0C5
:1044B00000408342E3D20132C9E700BF300E002042
:1044C0002C0E002038B5437A13F0010F0FD00446AC
:1044D000FBF796FE05462046FFF762FF637A23F05E
:1044E000010363722846FBF78FFE002038BD4FF0B2
:1044F000FF30FBE770B505460C461646FBF780FE1D
:10450000042C06D8DFE804F009030C1116006B6ACE
:104510003360FBF779FE002070BD33686B62F8E70B
:104520006B7A23F002036B72F3E76B7A43F00203BA
:104530006B72EEE76B7A13F0010F02D00123336048
:10454000E7E700233360E4E72DE9F04182B0CDF8DE
:1045500004D0CDF800D0FFF783F80546FBF750FEF6
:1045600080461BE0009B5C60236000946E466660A2
:10457000A368E0689847FFF773F80546009BB342CD
:104580000CD022686368536022681A6064602460FB
:1045900014F80B3C03F00302032A18D0134B1C68D9
:1045A0009C421CD0A4F114076369EB1A6FF000421F
:1045B000934214D23846FFF7F3FE14F80B3C13F085
:1045C000020FCFD123F0010304F80B3CCAE723F01C
:1045D000010304F80B3C3846FFF724FFDEE74046B2
:1045E000FBF712FE02B0BDE8F08100BF300E0020E4
:1045F000002202B17047034B03EBC2035B601B60F8
:104600000132F6E7300E0020704700002DE9F04738
:10461000089D0C46002B4ED194468C458646B2FA36
:1046200082F262D94AB1C2F12003914020FA03F329
:104630000CFA02FC194300FA02FE4FEA1C471FFA6B
:104640008CF6B1FBF7F44FEA1E4307FB141143EA63
:10465000014304FB06F199420AD91CEB030304F160
:10466000FF3080F01281994240F20F81023C634496
:10467000591A1FFA8EF3B1FBF7F007FB101143EA4A
:10468000014300FB06F69E420AD91CEB030300F12E
:10469000FF3180F0FC809E4240F2F9806344023892
:1046A0009B1B40EA044000211DB1D3400022C5E914
:1046B0000032BDE8F0878B4205D90DB1C5E9000194
:1046C00000210846F5E7B3FA83F1002946D1A34259
:1046D00002D39042C0F0F080861A64EB03030120FD
:1046E000002DE6D0C5E90063E3E7002A40F09080A2
:1046F000A1EB0C044FEA1C481FFA8CF70121B4FB14
:10470000F8F64FEA1E4308FB164443EA044307FB4E
:1047100006F0984208D91CEB030306F1FF3402D2DD
:10472000984200F2CD8026461C1A1FFA8EF3B4FB85
:10473000F8F008FB104443EA044300FB07F79F42EC
:1047400008D91CEB030300F1FF3402D29F4200F2B0
:10475000B0802046DB1B40EA0640A5E7C1F12006F9
:104760008B4022FA06F71F4320FA06FC04FA01F3F5
:1047700043EA0C03F44000FA01F8380C4FEA1349FD
:10478000B4FBF0FE1FFA87FC00FB1E4449EA044418
:104790000EFB0CF9A14502FA01F20AD93C190EF1FF
:1047A000FF3A80F08480A14540F28180AEF1020E94
:1047B0003C44A4EB09041FFA83F9B4FBF0F300FBBB
:1047C000134449EA044403FB0CFCA44507D93C19F3
:1047D00003F1FF3067D2A44565D9023B3C4443EA6C
:1047E0000E40A0FB0293A4EB0C049C42CE469C46D8
:1047F00051D34ED055B1B8EB0E0364EB0C0404FA60
:1048000006F6CB401E43CC40C5E90064002150E7CA
:10481000C2F1200320FA03F10CFA02FC24FA03F39C
:1048200094400C434FEA1C4800FA02FE1FFA8CF732
:10483000B3FBF8F008FB1031230C43EA014300FB03
:1048400007F1994208D91CEB030300F1FF362CD283
:1048500099422AD9023863445B1AA4B2B3FBF8F137
:1048600008FB113344EA034401FB07F3A34208D9D0
:104870001CEB040401F1FF3613D2A34211D9023913
:104880006444E41A41EA004139E70446F0E6084688
:1048900006E7C845AED2B9EB020E63EB070C013850
:1048A000A8E73146EDE7034699E73046D4E7D64618
:1048B0007FE7634402384DE70646234608460FE784
:1048C000023E634430E700BF830730B547D0541E33
:1048D000002A3ED0CAB2034601E0013C39D303F8B6
:1048E000012B9D07F9D1032C2CD9CDB205EB052561
:1048F0000F2C05EB054535D9A4F1100222F00F0C61
:1049000003F1100EE6444FEA121C1A46156055607A
:104910009560D56010327245F8D10CF1010214F0A7
:104920000C0F03EB021204F00F0C13D0ACF10403D4
:1049300023F003030433134442F8045B9A42FBD18F
:104940000CF003042CB1C9B21C4403F8011B9C42B7
:10495000FBD130BD64461346002CF4D1F9E7034681
:104960001446C0E71A46A446E0E700BFB2B340EAE7
:1049700001039B0730B5844618D1032A16D9044693
:104980000B4606E0043A2BD01EF0803F28D1032AC4
:104990002AD92068194653F8045BA0F1013EA842C9
:1049A000A4462EEA000E04F10404EBD09CF80000AB
:1049B0000C78844216D1012A12D0E64668B11EF85E
:1049C000010F11F8014FA2EB0E03A04203F1FF33D8
:1049D00008D11CEB0303F1D1184630BD10467047D7
:1049E000002030BD001B30BDA4461946DEE700BFE5
:1049F00070B50F4B0F4DAB42A3EB050607D0B610B9
:104A0000002455F8043B01349847A642F9D800F039
:104A10007FF8094D094B5E1BAB424FEAA60606D054
:104A2000002455F8043B01349847A642F9D870BDDC
:104A300040560008405600084056000848560008F6
:104A4000704700BF704700BF024B13B1024800F02F
:104A500005B8704700000000694A000800230146BD
:104A60001A46184600F014B838B5074D074C2C1BF1
:104A7000A41005D0013C55F8043D9847002CF9D10D
:104A8000BDE8384000F04AB84C56000848560008C7
:104A90002DE9F8431B4D0646286898460F46914677
:104AA000FFF7CEFF184B1C681CB3286865681F2DE4
:104AB00022DC4EB96B1C0235636044F82570FFF7A9
:104AC000C1FF0020BDE8F88304EB85010123C1F894
:104AD0008890D4F88821AB401A43022EC4F888216C
:104AE000C1F80881E6D1D4F88C211A43C4F88C218E
:104AF000E0E7064C1C60D8E7FFF7A4FF4FF0FF305B
:104B0000E0E700BF480000203C0E0020400E0020DF
:104B1000F8B500BFF8BC08BC9E467047F8B500BFAA
:104B2000F8BC08BC9E467047104F0008F44E0008C1
:104B3000FD2A0008304F0008184F0008252A0008F9
:104B40005C4F0008444F0008252A0008804F0008E9
:104B5000684F00081D290008AC4F0008944F00085A
:104B60001D290008D84F0008BC4F00081D28000868
:104B700004500008E84F00081D2800081C500008D9
:104B800010500008D12600083C50000830500008A2
:104B9000D12600086C500008485000084126000843
:104BA000A05000087C50000841260008B8500008BA
:104BB000A850000801260008485100082C510008A0
:104BC000D52C00086C510008545100082D2C000809
:104BD000D5360008D936000811250008DD36000852
:084BE000DD310008E136000898
:104BE8006E6963650A0000006C65643100000000AE
:104BF80000000000010203040000000000000000A3
:104C08000102030406070809010002000400060067
:104C180008000A000C00100020004000800000017D
:104C28000804020408010101010101030701000051
:104C380048656C6C6F2052542D546872656164210C
:104C48000A000000257300002F00000074687265D8
:104C580061640000252D2A2E73207072692020734C
:104C68007461747573202020202020737020202008
:104C78002020737461636B2073697A65206D617895
:104C88002075736564206C656674207469636B2095
:104C9800206572726F720A002D000000202D2D2DE4
:104CA80020202D2D2D2D2D2D2D202D2D2D2D2D2D53
:104CB8002D2D2D2D202D2D2D2D2D2D2D2D2D2D2036
:104CC800202D2D2D2D2D2D20202D2D2D2D2D2D2D33
:104CD8002D2D2D202D2D2D0A00000000252D2A2EEA
:104CE8002A732025336420002072656164792020AE
:104CF800000000002073757370656E64000000008A
:104D080020696E69742020200000000020636C6F09
:104D180073652020000000002072756E6E696E6752
:104D28000000000020307825303878203078253091
:104D38003878202020202530326425252020203076
:104D4800782530387820253033640A0073656D6122
:104D580070686F7265000000252D2A2E732076205A
:104D6800202073757370656E642074687265616461
:104D78000A000000202D2D2D202D2D2D2D2D2D2D1F
:104D88002D2D2D2D2D2D2D0A00000000252D2A2E2C
:104D98002A7320253033642025643A00252D2A2ED5
:104DA8002A7320253033642025640A006D61696CFC
:104DB800626F7800252D2A2E7320656E7472792013
:104DC80073697A652073757370656E642074687290
:104DD8006561640A00000000202D2D2D2D20202D56
:104DE8002D2D2D202D2D2D2D2D2D2D2D2D2D2D2DF8
:104DF8002D2D0A00252D2A2E2A73202530346420D3
:104E080020253034642025643A000000252D2A2E00
:104E18002A7320253034642020253034642025640A
:104E28000A00000074696D6572000000252D2A2EA5
:104E3800732020706572696F64696320202074692B
:104E48006D656F757420202020202020666C6167B6
:104E58000A000000202D2D2D2D2D2D2D2D2D2D203E
:104E68002D2D2D2D2D2D2D2D2D2D202D2D2D2D2D77
:104E78002D2D2D2D2D2D0A00252D2A2E2A7320307B
:104E880078253038782030782530387820000000B0
:104E98006163746976617465640A000064656163BE
:104EA800746976617465640A000000006375727243
:104EB800656E74207469636B3A3078253038780AE7
:104EC800000000002D2D46756E6374696F6E204CCE
:104ED8006973743A0A0000005F5F0000252D3136BF
:104EE80073202D2D2025730A000000006C6973744F
:104EF80020616C6C2073796D626F6C20696E207311
:104F0800797374656D0000006C69737400000000AB
:104F18006C6973742074696D657220696E20737989
:104F28007374656D000000005F5F636D645F6C699A
:104F380073745F74696D6572000000006C69737446
:104F48002074696D657220696E2073797374656D5C
:104F5800000000006C6973745F74696D657200000D
:104F68006C697374206D61696C20626F7820696E5A
:104F78002073797374656D005F5F636D645F6C693E
:104F880073745F6D61696C626F7800006C6973742B
:104F9800206D61696C20626F7820696E2073797367
:104FA80074656D006C6973745F6D61696C626F78AC
:104FB800000000006C6973742073656D6170686F20
:104FC800726520696E2073797374656D0000000046
:104FD8005F5F636D645F6C6973745F73656D000018
:104FE8006C6973742073656D6170686F7265206990
:104FF8006E2073797374656D000000006C697374BA
:105008005F73656D000000006C69737420746872CA
:10501800656164005F5F636D645F6C6973745F747E
:1050280068726561640000006C697374207468724A
:10503800656164006C6973745F74687265616400AB
:1050480073686F772052542D5468726561642076B6
:10505800657273696F6E20696E666F726D617469CF
:105068006F6E00005F5F636D645F76657273696F72
:105078006E00000073686F772052542D5468726573
:1050880061642076657273696F6E20696E666F72EF
:105098006D6174696F6E000076657273696F6E007A
:1050A8007361792068656C6C6F20776F726C64002F
:1050B80068656C6C6F000000546F6F206D616E79CD
:1050C80020617267732021205765206F6E6C7920EC
:1050D8005573653A0A0000002573200052542D5478
:1050E8006872656164207368656C6C20636F6D6DB0
:1050F800616E64733A0A00005F5F636D645F00006D
:10510800252D313673202D2025730A0025733A206A
:10511800636F6D6D616E64206E6F7420666F756E5F
:10512800642E0A004C697374207468726561647334
:1051380020696E207468652073797374656D2E001C
:105148005F5F636D645F70730000000052542D54FC
:105158006872656164207368656C6C2068656C7042
:105168002E0000005F5F636D645F68656C7000000F
:105178006D7368200000000066696E736820000087
:105188003E000000257325730000000008000000A1
:105198002563000008257320200800000820080067
:1051A800747368656C6C00007368727800000000A6
:1051B800627573206661756C743A0A005343425FE6
:1051C800434653525F424653523A3078253032585C
:1051D800200000004942555345525220000000006B
:1051E800505245434953455252200000494D5052B0
:1051F800454349534552522000000000554E535430
:105208004B4552522000000053544B455252200047
:105218005343422D3E424641523A253038580A00FF
:105228006D656D206D616E616765206661756C7472
:105238003A0A00005343425F434653525F4D465378
:10524800523A307825303258200000004941434313
:1052580056494F4C200000004441434356494F4CA7
:10526800200000004D554E53544B4552522000002B
:105278004D53544B45525220000000005343422DD9
:105288003E4D4D41523A253038580A0075736167D2
:1052980065206661756C743A0A0000005343425FEA
:1052A800434653525F554653523A30782530325868
:1052B80020000000554E444546494E5354522000A4
:1052C800494E56535441544520000000494E56500B
:1052D800432000004E4F435020000000554E414CE3
:1052E80049474E454420000044495642595A4552C0
:1052F8004F2000006661696C656420766563746F91
:10530800722066657463680A00000000646562754F
:1053180067206576656E740A000000007073723A43
:10532800203078253038780A000000007230303A92
:10533800203078253038780A000000007230313A81
:10534800203078253038780A000000007230323A70
:10535800203078253038780A000000007230333A5F
:10536800203078253038780A000000007230343A4E
:10537800203078253038780A000000007230353A3D
:10538800203078253038780A000000007230363A2C
:10539800203078253038780A000000007230373A1B
:1053A800203078253038780A000000007230383A0A
:1053B800203078253038780A000000007230393AF9
:1053C800203078253038780A000000007231303AF1
:1053D800203078253038780A000000007231313AE0
:1053E800203078253038780A000000007231323ACF
:1053F800203078253038780A00000000206C723A96
:10540800203078253038780A000000002070633A90
:10541800203078253038780A00000000686172640E
:10542800206661756C74206F6E20746872656164A3
:105438003A2025730D0A0D0A0000000068617264A5
:10544800206661756C74206F6E2068616E646C658F
:10545800720D0A0D0A0000004650552061637469F8
:105468007665210D0A0000006D61696E000000007C
:105478007469646C65000000284E554C4C29000086
:105488000A205C207C202F0A000000002D205254A6
:10549800202D2020202020546872656164204F70E0
:1054A80065726174696E672053797374656D0A005B
:1054B800202F207C205C202020202025642E25649D
:1054C8002E2564206275696C642025730A0000002B
:1054D8004170722031312032303233002032303086
:1054E80036202D203230323020436F707972696750
:1054F80068742062792072742D7468726561642002
:105508007465616D0A000000303132333435363746
:1055180038396162636465660000000030313233F7
:105528003435363738394142434445460000000097
:105538000000010002000100030001000200010058
:105548000400010002000100030001000200010044
:105558000500010002000100030001000200010033
:105568000400010002000100030001000200010024
:105578000600010002000100030001000200010012
:105588000400010002000100030001000200010004
:1055980005000100020001000300010002000100F3
:1055A80004000100020001000300010002000100E4
:1055B80007000100020001000300010002000100D1
:1055C80004000100020001000300010002000100C4
:1055D80005000100020001000300010002000100B3
:1055E80004000100020001000300010002000100A4
:1055F8000600010002000100030001000200010092
:105608000400010002000100030001000200010083
:105618000500010002000100030001000200010072
:105628000400010002000100030001000200010063
:08563800F4B1FF7F0100000046
:08564000494A0008C10A0008F4
:04564800990A0008B3
:10564C000024F40010000000010000000C000020F9
:10565C000C00002078000000020000001C0000205C
:10566C001C00002020000000050000002C00002081
:10567C002C000020300000000A0000003C0000203C
:0C568C003C0000202C000000380E002024
:0400000508000E3DA4
:00000001FF
